:04000000ACEF0AF067
:1010000000536D617274206C6967687400436F6E81
:0910100074726F6C6C65720000D3
:10101A0014041510D8A414EF08F016EF08F035EFF1
:10102A0008F07F0E16241B6E000E17201C6E1BC0C4
:10103A0018F01CC019F0040E1A6E1934193218323D
:10104A001A2E22EF08F018500B6E1B500F0B0C6E65
:10105A000B50E5EC0AF00C50E5EC0AF0B0EF08F0A2
:10106A00020E14181510D8A43DEF08F03FEF08F04F
:10107A005EEF08F0BF0E16241B6E000E17201C6EC2
:10108A001BC018F01CC019F0040E1A6E193419325C
:10109A0018321A2E4BEF08F018500B6E1B500F0B1C
:1010AA000C6E0B50E5EC0AF00C50E5EC0AF0B0EFD0
:1010BA0008F0030E14181510D8A466EF08F068EFAC
:1010CA0008F087EF08F0930E16241B6E000E172007
:1010DA001C6E1BC018F01CC019F0040E1A6E1934CD
:1010EA00193218321A2E74EF08F018500B6E1B5072
:1010FA000F0B0C6E0B50E5EC0AF00C50E5EC0AF005
:10110A00B0EF08F0040E14181510D8A48FEF08F0E9
:10111A0091EF08F0B0EF08F0D30E16241B6E000E04
:10112A0017201C6E1BC018F01CC019F0040E1A6E92
:10113A001934193218321A2E9DEF08F018500B6E16
:10114A001B500F0B0C6E0B50E5EC0AF00C50E5EC43
:10115A000AF0B0EF08F01200000E166E410E146E7F
:10116A00EE0EE82EFED7142EFCD700D0000EFDECB2
:10117A000AF02E6E410E146EEE0EE82EFED7142ED5
:10118A00FCD700D0D8EF08F00D0E156EAF0E146E16
:10119A00B60EE82EFED7142EFCD7152EFAD700D09D
:1011AA00162ABFEF08F082B0DDEF08F0DFEF08F093
:1011BA00E7EF08F0020E1664E5EF08F0E7EF08F033
:1011CA00C9EF08F0030E1618D8A4EEEF08F0F0EFF6
:1011DA0008F018EF09F02E50D8B4F6EF08F0F9EF3E
:1011EA0008F0010EFAEF08F0000E2E6E410E146E92
:1011FA00EE0EE82EFED7142EFCD700D0410E146E48
:10120A00EE0EE82EFED7142EFCD700D02EC011F019
:10121A00000EF1EC09F0410E146EEE0EE82EFED728
:10122A00142EFCD700D0410E146EEE0EE82EFED717
:10123A00142EFCD700D02EB002D0819201D0818228
:10124A00410E146EEE0EE82EFED7142EFCD700D0F7
:10125A00070E146E7D0EE82EFED7142EFCD700F072
:10126A008394070E146E7D0EE82EFED7142EFCD73B
:10127A0000F01200010E936E170E946E030E956E17
:10128A00816882688368F28E410E1F6EEE0EE82E28
:10129A00FED71F2EFCD700D0C7CF03F0046AC5CFF4
:1012AA0001F0026A410E1F6EEE0EE82EFED71F2EC7
:1012BA00FCD700D0410E1F6EEE0EE82EFED71F2E71
:1012CA00FCD700D0B8EC09F0410E1F6EEE0EE82EE6
:1012DA00FED71F2EFCD700D014EC0BF0410E1F6E68
:1012EA00EE0EE82EFED71F2EFCD700D0410E1F6E41
:1012FA00EE0EE82EFED71F2EFCD700D0B1EC08F078
:10130A00410E1F6EEE0EE82EFED71F2EFCD700D020
:10131A00410E1F6EEE0EE82EFED71F2EFCD700D010
:10132A0025EC0AF0330E206EBB0E1F6EE00EE82E7F
:10133A00FED71F2EFCD7202EFAD7410E1F6EEE0EB7
:10134A00E82EFED71F2EFCD700D0B1EC08F0070E0E
:10135A001F6E7D0EE82EFED71F2EFCD700F0A2EFDF
:10136A0009F000EF00F0000E54EC0AF0820E146E41
:10137A00DE0EE82EFED7142EFCD7030EE5EC0AF09B
:10138A00210E146E760EE82EFED7142EFCD700D04E
:10139A00030EE5EC0AF0480E146E6C0EE82EFED72A
:1013AA00142EFCD700D0030EE5EC0AF0020EE5EC91
:1013BA000AF0020EE5EC0AF0080EE5EC0AF0000E5F
:1013CA00E5EC0AF00C0EE5EC0AF0000EE5EC0AF08A
:1013DA00060EE5EC0AF01200136E13C0A9FF000E08
:1013EA00AA6E11C0A8FFF29EF29CA098A69EA6849F
:1013FA00A692550EA76EAA0EA76EA682F28EF28C40
:10140A00A088A694A6A60CEF0AF00EEF0AF00FEF3A
:10141A000AF0A682A1A814EF0AF016EF0AF007EF65
:10142A000AF0A198F29EF29CA098A694A692070EA2
:10143A00126E7D0EE82EFED7122EFCD700F0120097
:10144A0014EC0BF0000E156E010E146E000E176EE2
:10145A00030E166E0DEC08F0010E166E100E176EC6
:10146A0082EC0AF0000E156E020E146E000E176E54
:10147A00040E166E0DEC08F00D0E166E100E176E99
:10148A0082EC0AF01A0E1E6E5E0E1D6E6E0EE82EAD
:10149A00FED71D2EFCD71E2EFAD700D01200116ED1
:1014AA0011A05AEF0AF05CEF0AF05FEF0AF08188A8
:1014BA0060EF0AF0819811A265EF0AF067EF0AF06F
:1014CA006AEF0AF0818A6BEF0AF0819A11A470EF31
:1014DA000AF072EF0AF075EF0AF0818C76EF0AF0E3
:1014EA00819C11A67BEF0AF07DEF0AF080EF0AF0EB
:1014FA00818E81EF0AF0819E1200000E0A6E97EF2C
:10150A000AF00A501624186E000E1720196E18C019
:10151A00F6FF19C0F7FF0800F550126E136AC9ECFE
:10152A000AF00A2A0A501624186E000E1720196E9D
:10153A0018C0F6FF19C0F7FF0800F5500009D8A433
:10154A00A9EF0AF0ABEF0AF086EF0AF012001A0EC2
:10155A00F66E160EF76E000EF86E00EE21F010EE23
:10156A000EF00900F5CFEEFFE550E150FAE100EE8A
:10157A0001F0100EEE6AE806FDE1000EF86E100E9C
:10158A00F76E00013FEF09F00F0E1214146E156A80
:10159A001250F00B0C6E81840C380F0B54EC0AF0CD
:1015AA008186420EE82EFED700D08196145054EC64
:1015BA000AF08186420EE82EFED700D081961200EC
:1015CA00136E8194070E126E7D0EE82EFED7122E30
:1015DA00FCD700F0135054EC0AF08186070E126E05
:1015EA007D0EE82EFED7122EFCD700F0819612004F
:1015FA00116E11C0A9FF000EAA6EA69EA680A6B003
:10160A0009EF0BF00BEF0BF004EF0BF0A8501200F0
:10161A0053657474696E6773536176656401000E6D
:0C162A00E5EC0AF0010EE5EC0AF01200FD
:020000040020DA
:08000000FFFFFFFFFFFFFFFF00
:020000040030CA
:0E000000FF220B3FFFB581FF0FC00FE00F4046
:00000001FF
