:04000000ACEF0AF067
:1010000000536D617274206C6967687400436F6E81
:0910100074726F6C6C65720000D3
:10101A0016041710D8A414EF08F016EF08F035EFED
:10102A0008F07F0E18241D6E000E19201E6E1DC0BA
:10103A001AF01EC01BF0040E1C6ED8901B321A3216
:10104A001C2E22EF08F01A500D6E1D500F0B0E6E5B
:10105A000D50E5EC0AF00E50E5EC0AF0B0EF08F09E
:10106A00020E16181710D8A43DEF08F03FEF08F04B
:10107A005EEF08F0BF0E18241D6E000E19201E6EBA
:10108A001DC01AF01EC01BF0040E1C6ED8901B3235
:10109A001A321C2E4BEF08F01A500D6E1D500F0B12
:1010AA000E6E0D50E5EC0AF00E50E5EC0AF0B0EFCA
:1010BA0008F0030E16181710D8A466EF08F068EFA8
:1010CA0008F087EF08F0930E18241D6E000E192001
:1010DA001E6E1DC01AF01EC01BF0040E1C6ED890A6
:1010EA001B321A321C2E74EF08F01A500D6E1D5066
:1010FA000F0B0E6E0D50E5EC0AF00E50E5EC0AF0FF
:10110A00B0EF08F0040E16181710D8A48FEF08F0E5
:10111A0091EF08F0B0EF08F0D30E18241D6E000E00
:10112A0019201E6E1DC01AF01EC01BF0040E1C6E84
:10113A00D8901B321A321C2E9DEF08F01A500D6EF1
:10114A001D500F0B0E6E0D50E5EC0AF00E50E5EC3B
:10115A000AF0B0EF08F01200000E186E410E166E7B
:10116A00EE0EE82EFED7162EFCD700D0000EFDECB0
:10117A000AF0306E410E166EEE0EE82EFED7162ECF
:10118A00FCD700D0D8EF08F00D0E176EAF0E166E12
:10119A00B60EE82EFED7162EFCD7172EFAD700D099
:1011AA00182ABFEF08F082B0DDEF08F0DFEF08F091
:1011BA00E7EF08F0020E1864E5EF08F0E7EF08F031
:1011CA00C9EF08F0030E1818D8A4EEEF08F0F0EFF4
:1011DA0008F018EF09F03050D8B4F6EF08F0F9EF3C
:1011EA0008F0010EFAEF08F0000E306E410E166E8E
:1011FA00EE0EE82EFED7162EFCD700D0410E166E44
:10120A00EE0EE82EFED7162EFCD700D030C013F013
:10121A00000EF1EC09F0410E166EEE0EE82EFED726
:10122A00162EFCD700D0410E166EEE0EE82EFED713
:10123A00162EFCD700D030B002D0819201D0818224
:10124A00410E166EEE0EE82EFED7162EFCD700D0F3
:10125A00070E166E7D0EE82EFED7162EFCD700F06E
:10126A008394070E166E7D0EE82EFED7162EFCD737
:10127A0000F01200010E936E170E946E030E956E17
:10128A00816882688368F28E410E216EEE0EE82E26
:10129A00FED7212EFCD700D0C7CF03F0046AC5CFF2
:1012AA0001F0026A410E216EEE0EE82EFED7212EC3
:1012BA00FCD700D0410E216EEE0EE82EFED7212E6D
:1012CA00FCD700D0B8EC09F0410E216EEE0EE82EE4
:1012DA00FED7212EFCD700D014EC0BF0410E216E64
:1012EA00EE0EE82EFED7212EFCD700D0410E216E3D
:1012FA00EE0EE82EFED7212EFCD700D0B1EC08F076
:10130A00410E216EEE0EE82EFED7212EFCD700D01C
:10131A00410E216EEE0EE82EFED7212EFCD700D00C
:10132A0025EC0AF0330E226EBB0E216EE00EE82E7B
:10133A00FED7212EFCD7222EFAD7410E216EEE0EB1
:10134A00E82EFED7212EFCD700D0B1EC08F0070E0C
:10135A00216E7D0EE82EFED7212EFCD700F0A2EFDB
:10136A0009F000EF00F0000E54EC0AF0820E166E3F
:10137A00DE0EE82EFED7162EFCD7030EE5EC0AF099
:10138A00210E166E760EE82EFED7162EFCD700D04A
:10139A00030EE5EC0AF0480E166E6C0EE82EFED728
:1013AA00162EFCD700D0030EE5EC0AF0020EE5EC8F
:1013BA000AF0020EE5EC0AF0080EE5EC0AF0000E5F
:1013CA00E5EC0AF00C0EE5EC0AF0000EE5EC0AF08A
:1013DA00060EE5EC0AF01200156E15C0A9FF000E04
:1013EA00AA6E13C0A8FFF29EF29CA098A69EA6849D
:1013FA00A692550EA76EAA0EA76EA682F28EF28C40
:10140A00A088A694A6A60CEF0AF00EEF0AF00FEF3A
:10141A000AF0A682A1A814EF0AF016EF0AF007EF65
:10142A000AF0A198F29EF29CA098A694A692070EA2
:10143A00146E7D0EE82EFED7142EFCD700F0120093
:10144A0014EC0BF0000E176E010E166E000E196EDC
:10145A00030E186E0DEC08F0010E186E100E196EC0
:10146A0082EC0AF0000E176E020E166E000E196E4E
:10147A00040E186E0DEC08F00D0E186E100E196E93
:10148A0082EC0AF01A0E206E5E0E1F6E6E0EE82EA9
:10149A00FED71F2EFCD7202EFAD700D01200136ECB
:1014AA0013A05AEF0AF05CEF0AF05FEF0AF08188A6
:1014BA0060EF0AF0819813A265EF0AF067EF0AF06D
:1014CA006AEF0AF0818A6BEF0AF0819A13A470EF2F
:1014DA000AF072EF0AF075EF0AF0818C76EF0AF0E3
:1014EA00819C13A67BEF0AF07DEF0AF080EF0AF0E9
:1014FA00818E81EF0AF0819E1200000E0C6E97EF2A
:10150A000AF00C5018241A6E000E19201B6E1AC00D
:10151A00F6FF1BC0F7FF0800F550146E156AC9ECF8
:10152A000AF00C2A0C5018241A6E000E19201B6E91
:10153A001AC0F6FF1BC0F7FF0800F5500009D8A42F
:10154A00A9EF0AF0ABEF0AF086EF0AF012001A0EC2
:10155A00F66E160EF76E000EF86E00EE23F010EE21
:10156A000EF00900F5CFEEFFE550E150FAE100EE8A
:10157A0001F0120EEE6AE806FDE1000EF86E100E9A
:10158A00F76E00013FEF09F00F0E1414166E176A7A
:10159A001450F00B0E6E81840E380F0B54EC0AF0C7
:1015AA008186420EE82EFED700D08196165054EC62
:1015BA000AF08186420EE82EFED700D081961200EC
:1015CA00156E8194070E146E7D0EE82EFED7142E2A
:1015DA00FCD700F0155054EC0AF08186070E146E01
:1015EA007D0EE82EFED7142EFCD700F0819612004D
:1015FA00136E13C0A9FF000EAA6EA69EA680A6B0FF
:10160A0009EF0BF00BEF0BF004EF0BF0A8501200F0
:10161A0053657474696E6773536176656401000E6D
:0C162A00E5EC0AF0010EE5EC0AF01200FD
:020000040020DA
:08000000FFFFFFFFFFFFFFFF00
:020000040030CA
:0E000000FF22133FFFB581FF0FC00FE00F403E
:00000001FF
